:100000000C9464070C948C070C948C070C948C074C
:100010000C948C070C948C070C948C070C948C0714
:100020000C948C070C948C070C94ED110C94020A20
:100030000C948C070C948C070C948C070C948C07F4
:100040000C948C070C948C070C948C070C948C07E4
:100050000C948C070C948C070C948C070C94710CEA
:100060000C948C070C948C070C948C070C948C07C4
:100070000C948C070C948C070C948C070C948C07B4
:100080000C948C070C948C070C948C070C948C07A4
:100090000C948C070C948C070C948C070C948C0794
:1000A0000C948C070C948C070C948C070060000057
:1000B0000000208080000038980000000818000030
:1000C00000043C000000207C00000010FC00000048
:1000D00001FE0000003BFE0000001FFF0000002E9C
:1000E0001F00000008038000000922000000112109
:1000F0000000005CCE000000ACCC800000B80740DF
:1001000000009A164000007DEF80000035EB0000F3
:10011000002A1500000070038000004001800000EC
:100120004FE90000007017F40000401FFF004080FE
:100130000FFF8060813FBB005700FF808048003F79
:10014000310020007F4B0013007F49800E003F31BB
:10015000400C007FE0C0103F87B8402097D50E804C
:10016000236029F10044C0108D00898000060091B1
:100170000000000060000000000000000000001B04
:10018000F10000003BFF8000003BFF00000007F093
:100190008000000FC50000000F850000000F8500E3
:1001A000000007A180000009718000000425000004
:1001B00000030200000001FC00000003FB0000003F
:1001C00003FC80000001FC800000013D00000002F3
:1001D0000600000002080000000410000000046097
:1001E0000000000380000000036000000003F8002E
:1001F00000001C05F000006003FC0000801FFE00F2
:1002000001000FFF0002003FE7000C005F8D0010AF
:10021000003F840067007FC0808A009FE1006C007F
:100220001FB880507F878F002097FA060023600157
:10023000C38044C00039008900000E009000000017
:1002400000600000000000000000000077C0000017
:100250000077FF00000077FE0000000FE1000000C3
:100260001F8A0000001F0A0000001F0A0000000E85
:100270004300000012E3000000084A0000000604EA
:1002800000000003F800000007F200000007FD0076
:10029000000007FC800000043C8000000213000006
:1002A0000002100000000210000000042000000006
:1002B00003C000000003600000003FF0000000C029
:1002C0003BF800010007FC00020007FE0004000FDD
:1002D000E10008000FC6800B003F828012000F80F3
:1002E0008016001F804017000FE04066104FFC8012
:1002F000AC38CFDF00AC4F9F3000B8C806200044B8
:10030000662230000251130800022D11880001C23C
:100310000E7000001400006A0000560001A5800164
:10032000C2800143400180C00281400381A00600D9
:10033000600500C00300A00500C00600300C00509E
:100340000A00600600500A00300A00500C00600AE3
:1003500000500600300E00500A00600C00500A00E9
:10036000300600500A00600500500600A00500C0DD
:100370000300A00500600281A00301400280C000CC
:10038000C3C001020001E780005500006A00002C94
:1003900000001400006A0000560001A58001C28020
:1003A0000143400180C00281400381A01600600D1E
:1003B00000CC0300A40500D00600300C00500A0059
:1003C000600600500A00300A00500D00600A80509C
:1003D0000600343E00500A00680C00500A00300647
:1003E00000500A00600500500600A00500C0034050
:1003F000A00580600681B00301482280C000C3C010
:1004000001020001E780005500016A00002C0099FC
:100410009999999998069999999999999999990079
:1004200000000000140A0000000000000000005559
:10043000555555554925555555555555555555926B
:100440004924924920004925249249249249249222
:10045000492492492DC04925249249249249246D6A
:10046000B6DB6DB6CDC1B6DADB6DB6DB6DB6DB9251
:10047000492492492D604925249249249249249285
:100480004924924923604925249249249249243FD2
:10049000E7FCFF9FEFF1FE7FDFF3FE7FCFF9FFDF89
:1004A000DBFB7F6FEF39FDBFAFEDFDBFB7F6FEC7DA
:1004B00018E31C638FD8718E238C718E31C638D0AF
:1004C000DA1B43686F190DA1A86D0DA1B43686D54E
:1004D0005AAB556AAE5155AAAAAD55AAB556AACA85
:1004E00099132A644E20A991254C899532265401EE
:1004F0000204081020408000000000003E5B4F5BBB
:100500003E3E6B4F6B3E1C3E7C3E1C183C7E3C18B6
:100510001C577D571C1C5E7F5E1C00183C1800FF9A
:10052000E7C3E7FF0018241800FFE7DBE7FF3048C8
:100530003A060E2629792926407F050507407F05C2
:10054000253F5A3CE73C5A7F3E1C1C08081C1C3EB9
:100550007F14227F22145F5F005F5F06097F017FA7
:10056000006689956A606060606094A2FFA294084A
:10057000047E040810207E201008082A1C08081C8D
:100580002A08081E101010100C1E0C1E0C30383ECD
:100590003830060E3E0E06000000000000005F002E
:1005A000000007000700147F147F14242A7F2A12FA
:1005B00023130864623649562050000807030000E0
:1005C0001C2241000041221C002A1C7F1C2A080812
:1005D0003E08080080703000080808080800006025
:1005E000600020100804023E5149453E00427F4011
:1005F0000072494949462141494D331814127F1070
:1006000027454545393C4A494931412111090736B9
:1006100049494936464949291E0000140000004056
:100620003400000008142241141414141400412250
:10063000140802015909063E415D594E7C121112FF
:100640007C7F494949363E414141227F4141413EFB
:100650007F494949417F090909013E414151737F61
:100660000808087F00417F41002040413F017F088A
:100670001422417F404040407F021C027F7F0408DB
:10068000107F3E4141413E7F090909063E4151210B
:100690005E7F09192946264949493203017F010332
:1006A0003F4040403F1F2040201F3F4038403F63B5
:1006B0001408146303047804036159494D43007F0F
:1006C0004141410204081020004141417F040201E0
:1006D0000204404040404000030708002054547882
:1006E000407F284444383844444428384444287FD0
:1006F000385454541800087E090218A4A49C787F2A
:100700000804047800447D40002040403D007F10F4
:1007100028440000417F40007C047804787C080471
:1007200004783844444438FC182424181824241825
:10073000FC7C08040408485454542404043F442412
:100740003C4040207C1C2040201C3C4030403C442D
:10075000281028444C9090907C4464544C440008E9
:100760003641000000770000004136080002010217
:1007700004023C2623263C1EA1A161123A404020DF
:100780007A3854545559215555794121545478415A
:10079000215554784020545579400C1E527212391C
:1007A00055555559395454545939555454580000D5
:1007B000457C410002457D420001457C40F02924F2
:1007C00029F0F0282528F07C545545002054547C0D
:1007D000547C0A097F4932494949323248484832F3
:1007E000324A4848303A4141217A3A424020780022
:1007F0009DA0A07D39444444393D4040403D3C24C7
:10080000FF2424487E4943662B2FFC2F2BFF092908
:10081000F620C0887E090320545479410000447DAD
:10082000413048484A32384040227A007A0A0A72F7
:100830007D0D19317D2629292F28262929292630A1
:10084000484D4020380808080808080808382F10C4
:10085000C8ACBA2F102834FA00007B000008142A14
:10086000142222142A14089500220095AA0055008B
:10087000AAAA55AA55AA000000FF00101010FF00F8
:10088000141414FF001010FF00FF1010F010F014EB
:100890001414FC001414F700FF0000FF00FF1414F0
:1008A000F404FC141417101F10101F101F1414143C
:1008B0001F00101010F0000000001F101010101F7B
:1008C00010101010F010000000FF10101010101089
:1008D000101010FF10000000FF140000FF00FF00C8
:1008E000001F10170000FC04F41414171017141440
:1008F000F404F40000FF00F714141414141414F793
:1009000000F7141414171410101F101F141414F4EB
:10091000141010F010F000001F101F0000001F1432
:10092000000000FC140000F010F01010FF10FF1485
:100930001414FF141010101F00000000F010FFFF2F
:10094000FFFFFFF0F0F0F0F0FFFFFF0000000000FD
:10095000FFFF0F0F0F0F0F38444438447C2A2A3E04
:10096000147E02020606027E027E0263554941633E
:100970003844443C04407E201E2006027E02029938
:10098000A5E7A5991C2A492A1C4C7201724C304AD1
:100990004D4D303048784830BC625A463D3E49495A
:1009A00049007E0101017E2A2A2A2A2A44445F4402
:1009B0004440514A444040444A51400000FF010332
:1009C000E080FF000008086B6B08361236243606FC
:1009D0000F090F060000181800000010100030402A
:1009E000FF0101001F01011E00191D1712003C3CF0
:1009F0003C3C0000000000D5F08D14A1C881CFD987
:100A0000F1AF2000FFFFFFFFFFFFFFFFFFFFFFFF32
:100A1000FFFFFFFFFFFFFFFFFFFFFFFFFFFFFFFFE6
:100A2000FFFFFFFFFFFBEFFF7FEF9FFDFFDEFFBD3F
:100A3000FFE07FFFFFFFEFFEBFEFDFFEFFDEFF8087
:100A4000082F7FFFFFE1EFFDDFEC01FE7FBD7F7D23
:100A5000FFAB7FFFFFFDEFFBEF83BFF6FFBBBF7D6B
:100A6000FBAB7FFFFFFB00F7F7EF7FF7FF37DE60A1
:100A70003D6B7FFFFFFBEFC808CEF7B7EEAFE56F2A
:100A8000BD6B7FFFF831EFFFFDC607B7F79BAF6087
:100A90003EEB783FFFEAEFFFFFABEFB7FBBBBF6F6B
:100AA000BEEB7FFFFFFBEFE003AFDBB7FBBBBF603D
:100AB0003D6B7FFFFFFBEFFEFFEF3377FBBBBF6FAD
:100AC000BDA97FFFFFFBEFFDDFECEFF7EFBBBF60E2
:100AD0003DB5FFFFFFFBEFFBEFEFDFF7EFBBBF6FB6
:100AE000BBEDDFFFFFFA007007EF27F7EFB7BF6F2F
:100AF000BFDDDFFFFFFBFFFBF7E8FBF81FAFBF0029
:100B00000F3E3FFFFFDFFFFFFFFFFDFFFBFFFFFF8C
:100B1000EFFFBDFFF0002180E003FEFFFDFFFC0FB3
:100B2000C7FDBDBFF7FFBDBEEFFBFEFFFDFE0DEC39
:100B30003FFE857FF4017DBEEFFBC0030002EDEFB9
:100B4000BFFEBCFFFFFFFD80E003FEFFEFDEEC0F0A
:100B5000B81FBDDFFE03E1F7EF7FFEFFEFDE0DEC18
:100B600003DFA5DFFEFBEFF7EF7FFEFFEFBEEDEF4C
:100B7000BBD89A3FFE03EF006001E007F7BEEDEF40
:100B8000BBDEF7FFFFFFE1776FBFFEFFF77EEC0FE5
:100B90001BDEC07FFC01FD776FBFFEFFFB7E0DEE0D
:100BA000ABDEDF7FFDDDFD006FDFFEFFFCFEEDEE67
:100BB000ABDEDF7FFC01FDF7EDEEFEFFFB3FFBED63
:100BC000BBDE807FFDDDEDF6EBF6FEFFF7DFFBEF32
:100BD000B81E5F7FFC01F50067F88001CFE3F7AF37
:100BE000BBDEDF7FFDFDFBFF6FFEFFFF3FF7EFDFAB
:100BF000BFFFC07FFFBFFFBFFFFFEFBFFF7FFFFF54
:100C0000FEFFFBFFFFBFFFBFE001EFBFF73F000E9E
:100C1000FEFDFBFFFF7FFFBFFF7FC103F77FFBFFF1
:100C20007EFE77FFFC00F000F777B6EFF77FFBFF63
:100C3000B01F777FFDFEF7BEFB77FEFFEFBFFBFD2A
:100C4000FEFBEFBFFDFEF7BEFB77E007EFBFFBFE4D
:100C5000FEFCC01FFC00F7BEFB6FFEFFDDDFBBFF2D
:100C6000DEFEFFDFFDFEF7BEFF7F8001BDE3B81FA4
:100C7000A00FBFFFFDFEF000C000FFDF7BF7BBFF52
:100C8000BDFF603FFC00F7BEFF7FC003FBFFBBFF63
:100C90007DFEEFBFFDFEF7BEFF7FFBDFF7FFBBFC76
:100CA0007BB8EFBFFDFEF7BEFF7FFDDFEFBFBBFFF1
:100CB0007BDEEFBFFDFEF7BEFF7FFDDFDFDFBBFFAB
:100CC00077DEEFBFFC00F000FF7FFF5F800FBBFF10
:100CD000600EE03FFDE0F7FEF66FFDBFDFAE000700
:100CE00067EE6DBFF81DF00076EFFDBF7FAFDEFF52
:100CF000EFFFBBFFFDBDF7FF402FFDBFBFB7C00437
:100D0000000C003FFEDBF7FF76E0DDBBB003BFFF6A
:100D1000EFFFEFFFF00034016FDDEDBBF7BFBFFF6A
:100D2000EFFE007FF7BF77DF603DEDB737BF300FD5
:100D3000C03FEFFFFFBFF7DF6F5DF5B7B0B73FFF15
:100D4000DFBC003FF800F603415DF5AFB6B6B00F6B
:100D5000AF7F6DFFFF7FF7DF6D5BF5AFB6AFBFFF16
:100D6000B77FABFFFF03F7D76D6BF59FB6AFBFFF44
:100D70007AF8001FFE7BF7DB6D77FDBFA6DFB00EB4
:100D8000FDFFFFFFFDB7F401616BFDBF92DBB7ED27
:100D9000FAFE00FFF3CFF7FF6F6BFDBFB5ABB7EF08
:100DA000E77EFEFFFF3070007D5C8001EF73B00FC7
:100DB0009F8E00FFF8FEF7FF7EBDFFFFDEFBB7EC66
:100DC0007FDEFEFFFFFFFFFFFFFFFFFFFFFFFFFFD5
:100DD000FFFFFFFFFFFFFFFFFFFFFFFFFFFFFFFF23
:100DE000FFFFFFFFFFFFFFFFFFFFFFFFFFFFFFFF13
:100DF000FFFFFFFFFFFFFFFFFFFFFFFFFFFFFFFF03
:100E0000FFFFFFFF1800000000000000006606332F
:100E10003C128BE089444209492412888089449914
:100E200002493C1E888C8F449904492412A88C895D
:100E300054420849241250808928660F33BC12504E
:100E400080E92818000000000000000057494E000B
:100E5000080B000202020100090400000102020066
:100E600000052400100105240101010424020605E7
:100E70002406000107058103100040090401000257
:100E80000A00000007050202400000070583024037
:100E900000000403090412010002EF020140412393
:100EA000368000010102030141726475696E6F2092
:100EB0004C4C430041726475696E6F204C656F6ED7
:100EC0006172646F00002A1411241FBECFEFDAE0B4
:100ED000DEBFCDBF11E0A0E0B1E0EEE8FBE202C072
:100EE00005900D92AA36B107D9F726E0AAE6B1E03F
:100EF00001C01D92A830B207E1F717E0C4E6D7E0C1
:100F000004C02197FE010E94BA15C336D107C9F764
:100F10000E94A3120C94C5150C9400004091860108
:100F20005091870120918401309185014217530728
:100F3000B4F49091E8009570E1F39091E80092FD8F
:100F400019C08093F10080918601909187010196EC
:100F50008F739927892B19F48EEF8093E800809185
:100F60008601909187010196909387018093860175
:100F700081E0089580E00895CF92DF92EF92FF9292
:100F80000F931F93CF93DF931F92CDB7DEB7182F28
:100F9000062FE42E862F880F8E5F99830E948E077E
:100FA00083E00E948E07F12EC12E9981D92E8C2DBF
:100FB0008F19801798F4F601E7FE02C0849101C0F2
:100FC00080810E948E07182F80E00E948E07812367
:100FD000FFEFCF1ADF0A8111EACF01C081E00F9045
:100FE000DF91CF911F910F91FF90EF90DF90CF9005
:100FF0000895DF92EF92FF920F931F93CF93DF93A9
:10100000D82E8A017B01E40EF51EEB01CE15DF051B
:1010100071F0D7FE03C0FE01849101C088810E9457
:101020008E0721968111F2CF8FEF9FEF01C0C8018B
:10103000DF91CF911F910F91FF90EF90DF90089576
:10104000615030F02091F100FC0120830196F8CF2F
:10105000289884E680938B010895CF92DF92EF92D7
:10106000FF920F931F93CF93DF936C017A018B0153
:10107000C0E0D0E0CE15DF0589F0D8016D918D017B
:10108000D601ED91FC910190F081E02DC60109950A
:10109000892B11F47E0102C02196ECCFC701DF91AC
:1010A000CF911F910F91FF90EF90DF90CF90089517
:1010B0003FB7F89480917C0190917D01A0917E01D1
:1010C000B0917F0126B5A89B05C02F3F19F001966E
:1010D000A11DB11D3FBFBA2FA92F982F8827820FBE
:1010E000911DA11DB11DBC01CD0142E0660F771F0E
:1010F000881F991F4A95D1F708952FB7F8946091EA
:1011000078017091790180917A0190917B012FBFD4
:1011100008958FB12CB193B130E0209530952074B3
:101120003327A90123E0559547952A95E1F7292F03
:1011300030E02095309520713327359527953595EA
:101140002795242B8095807F822B089508950895FC
:1011500080E090E00895EF92FF920F931F93CF935A
:10116000DF9300D000D0CDB7DEB7F090830122E04E
:10117000F21609F475C0E090800180918101909190
:10118000820123E0E21691F024E0E21641F122E030
:10119000E2121BC020912C0130912D012D5F3F4F99
:1011A00030932D0120932C0103970BC020912C012B
:1011B00030912D012350310930932D0120932C01C2
:1011C0000396909382018093810120918101309157
:1011D0008201A90140585C4FE0E0F1E01DC0809120
:1011E0002A0190912B01489781F780E090E0A0EAD6
:1011F000B0EC8093730190937401A0937501B09348
:101200007601E3CF80819181029791838083349628
:1012100081E0E832F80741F08081918182179307DD
:101220008CF751834083EECF0E947D0800916F01BF
:1012300010917001209171013091720106501F4F81
:101240002F4F3F4F601771078207930738F02FEF3A
:10125000E21289C003C081E0F81202C0109283013B
:1012600020E030E040E05FE3609173017091740131
:1012700080917501909176010E948A149B01AC01C6
:10128000609373017093740180937501909376015C
:1012900080912A0190912B01BC01990F880B990B29
:1012A00029833A834B835C830E942E1529813A81DE
:1012B0004B815C810E948A140E94F61470932B016A
:1012C00060932A016831710594F080918301823026
:1012D00071F088E190E090932B0180932A011092A5
:1012E00073011092740110927501109276010E94A0
:1012F0007D0800916B0110916C0120916D0130917E
:101300006E0106501F4F2F4F3F4F60177107820726
:101310009307A0F00E947D0860936B0170936C01AD
:1013200080936D0190936E0180916A01811104C0D8
:1013300081E080936A0102C010926A0180912C01C1
:1013400090912D0180382FEF92071CF480589F4F09
:1013500005C018161906BCF48058910990932D0108
:1013600080932C0110C00E947D0860936F017093E0
:1013700070018093710190937201F1106CCF81E044
:10138000809383016DCF0F900F900F900F90DF919E
:10139000CF911F910F91FF90EF9008950F931F939E
:1013A000CF93DF931F92CDB7DEB782E0898342E40B
:1013B00050E060E57EE080E80E94F9070E94D911C4
:1013C000DC0112960D911C9113970115110569F01E
:1013D000D801ED91FC910280F381E02DBE016F5F99
:1013E0007F4FC801099597FF07C089810F90DF9152
:1013F000CF911F910F910895F80100851185E5CFD8
:101400000E94C0151F920F920FB60F921124CF9217
:10141000DF92EF92FF920F931F932F933F934F937F
:101420005F936F937F938F939F93AF93BF93EF934C
:10143000FF93CF93DF93CDB7DEB76C97DEBFCDBF01
:101440001092E9008091E80083FFEDC168E0CE01D1
:1014500045960E94200882EF8093E8008D8987FFDF
:1014600005C09091E80090FFFCCF03C09EEF9093E1
:10147000E800982F907609F0C6C09E892F89188DB4
:1014800091110CC0803829F4809189018093F1007A
:1014900002C01092F1001092F10048C1422F50E0BA
:1014A000512B913051F4811141C14130510509F066
:1014B0003DC1809189018D7F0BC0933061F4811112
:1014C00035C14130510509F031C1809189018260F7
:1014D000809389012BC1953041F48091E80080FF11
:1014E000FCCF20682093E30021C1963009F05FC053
:1014F000EB8CFC8C1092E90010928701109286010F
:10150000123091F510928501109284010E94CE094B
:1015100099E0BE016F5F7F4FDB01E92F1D92EA95D5
:10152000E9F799831A8391E09E8390EA98879AEF6E
:1015300099872091860130918701275F3F4F3C8337
:101540002B838D831092E9001092870110928601FF
:10155000F0928501E092840149E050E080E00E9431
:10156000F9070E94CE09E2C0F0928501E092840161
:101570000E94D911DC011296ED90FC901397E114B2
:10158000F10409F4C0C0D701ED91FC910480F5810C
:10159000E02DBE016B5E7F4FC7010995009719F0E2
:1015A0000CF0C4C0C7C0F701E084F184E8CF9730E5
:1015B00009F4C0C0983021F481E08093F100B6C0F6
:1015C000993009F0B3C0837009F0B4C0EDE3F1E0E5
:1015D00081E021E036E39081992361F08093E90076
:1015E0002093EB0091919093EC003093ED008F5F8E
:1015F000873089F78EE78093EA001092EA008F899E
:1016000080938C0193C08B8D9C8D1092E900109279
:101610008701109286019093850180938401898DC2
:10162000811156C08E899D89913A59F4813209F011
:1016300081C047E050E064E371E080E00E94F90778
:1016400075C0913209F076C0833289F4888D90E0BC
:10165000982F88272F89822BA0E0B0E0809330015B
:1016600090933101A0933201B09333015FC0803277
:1016700069F48091E80082FFFCCF67E084E391E0A9
:101680000E9420088BEF8093E80006C0823209F0A8
:101690004DC08F8980933B0180918801882319F088
:1016A000EEEFFAE002C0E0E0F8E0809134019091C2
:1016B0003501A0913601B0913701803B9440A105DE
:1016C000B10509F07BC080913B0180FF93C076C0DB
:1016D0000E94D911DC0112960D911C9113970115EE
:1016E000110541F1D801ED91FC910190F081E02DBF
:1016F000BE016B5E7F4FC8010995811117C0F801CB
:1017000000851185ECCF113009F44EC0133091F4EF
:101710008F89882309F445C0823081F440E860E174
:1017200084EB9EE00E94BC07882321F08EEF80931B
:10173000E80079C081E28093EB0075C0813029F424
:1017400040E86BE088EA9EE0EDCF833099F70E9495
:10175000D911DC011296ED90FC9013978E010F5F6A
:101760001F4F6801E114F10479F0D701ED91FC916C
:101770000680F781E02DB801C7010995080F111DFA
:10178000F701E084F184EECFD8011C92F6010190BC
:101790000020E9F73197BF016C197D0940E0C601CF
:1017A000C1CF62E97EE002C066E97EE061157105A5
:1017B00009F2FB01449150E080E840CF0FB6F89465
:1017C000A89580916000886180936000109260000D
:1017D0000FBEA895EE3F2AE0F20739F08091FE0A8D
:1017E0009091FF0A91838083A1CF1092FF0A1092FB
:1017F000FE0A9CCFEE3F8AE0F80731F080819181AC
:101800009093FF0A8093FE0A87E797E7918380838E
:101810009BE088E10FB6F894A895809360000FBE16
:101820009093600083CF6C960FB6F894DEBF0FBE26
:10183000CDBFDF91CF91FF91EF91BF91AF919F917C
:101840008F917F916F915F914F913F912F911F9158
:101850000F91FF90EF90DF90CF900F900FBE0F9001
:101860001F9018958F929F92AF92BF92CF92DF9266
:10187000EF92FF926B017C010E9458084B015C01C2
:10188000C114D104E104F104F1F00E945808DC0114
:10189000CB0188199909AA09BB09883E9340A10583
:1018A000B10570F321E0C21AD108E108F10888EE11
:1018B000880E83E0981EA11CB11CC114D104E10460
:1018C000F10419F7DDCFFF90EF90DF90CF90BF903C
:1018D000AF909F908F900895BC0180E090E00C94B1
:1018E000320C1F920F920FB60F9211242F933F9339
:1018F0008F939F93AF93BF938091780190917901DB
:10190000A0917A01B0917B013091770123E0230F00
:101910002D3720F40196A11DB11D05C026E8230F27
:101920000296A11DB11D20937701809378019093B9
:101930007901A0937A01B0937B0180917C01909111
:101940007D01A0917E01B0917F010196A11DB11D85
:1019500080937C0190937D01A0937E01B0937F01E1
:10196000BF91AF919F918F913F912F910F900FBE9B
:101970000F901F90189560387105D0F440345105D0
:10198000B8F4EFEEF4E080E1849FD001A078112458
:10199000A60F4770E40FF11D8491A357BE4F222379
:1019A00019F06C91862B03C080956C9186238C93E3
:1019B00008952F923F924F925F926F927F928F92F3
:1019C0009F92AF92BF92CF92DF92EF92FF920F93CE
:1019D0001F93CF93DF93CDB7DEB729970FB6F89457
:1019E000DEBF0FBECDBFFC016A3069F4248D808D4F
:1019F000918D38E0239F800D911D1124918F808F50
:101A0000178A168AAAC06D3009F4A7C099878887FB
:101A1000F48C338C228C608C718C06891789003889
:101A20001105C4F0A885B9855C962C915C97422F6E
:101A300050E056968D919C915797B6E02B9F800D64
:101A4000911D1124E885F985978B868B258D2111B1
:101A50006EC083C0F0E46F16710424F7C80125E05E
:101A6000F29E800D911D112418161906DCF68F2D9B
:101A700090E09C838B83C301A8E0FA9E800D911DAA
:101A800011241816190674F6B5E06B9FB0011124E5
:101A9000FB01E950FB4FFA83E98330E088859985A3
:101AA00004969E838D83E981FA81E490353009F4B0
:101AB000E12C430188E0482EE0FC02C0532C01C019
:101AC000522C51100BC0321009C0E6944A948B81FD
:101AD0009C81880E991E4110EFCF1BC068018C2D90
:101AE000801B8F1590F754018A2D88198F1568F483
:101AF000252DA501B6018D819E813F830E94BB0CDF
:101B00009FEFA91AB90A3F81EFCFAFEFCA1ADA0ADD
:101B1000E6CF3F5FEB81FC810E0F1F1F89819A8109
:101B200001969A838983363009F0BDCF7BCF6AEF67
:101B300064039001659F300D112420583F4F2817F2
:101B400039075CF4A885B985ED91FC911197019056
:101B5000F081E02D6AE0CD01099581E090E02996C1
:101B60000FB6F894DEBF0FBECDBFDF91CF911F91AE
:101B70000F91FF90EF90DF90CF90BF90AF909F902C
:101B80008F907F906F905F904F903F902F9008952F
:101B90004F925F926F927F928F929F92AF92BF927D
:101BA000CF92DF92EF92FF920F931F93CF93DF9329
:101BB0000E94C611C0E0D0E060912E0170912F010B
:101BC00080912C0190912D01EE24E3940EE020E809
:101BD0004FE054E08C0F9D1F0E942C11C058DF4F26
:101BE000C03821E0D20741F700E010E0CFE0D0E0BC
:101BF00021E0AE01B80181E995E00E94BB0C21967D
:101C0000C034D105A9F70F5F1F4F0038110571F7D8
:101C1000C1E0D0E0CC9F7001CD9FF00CF00C1124FE
:101C20008FE0E80EF11C00E010E020E0A701B80111
:101C300081E995E00E94BB0C0F5F1F4F0138110531
:101C4000A1F72196C730D10529F780E0C82E81E0A1
:101C5000D82E12E0812C912C90EAA92E90ECB92E6E
:101C60006090810170908201F601C081D181C61916
:101C7000D709CE0108968838910508F081C0809177
:101C80006A01882359F08130A1F4F60162817381E1
:101C9000E12C0AE226E143E153E008C0F60162814B
:101CA0007381E12C0AE226E141E953E0CE010E9472
:101CB0002C118091280190912901DE0116969C013A
:101CC000275E3F4FA217B3076CF5AC01455F5F4F2E
:101CD0009E01205F3F4F4217530724F520912A01B0
:101CE00030912B01F60142815381F9017696BA01B8
:101CF0006A5D7F4F6E177F07ACF4475D5F4F2F5FC4
:101D00003F4F2417350774F420918301223051F09E
:101D1000109383018092730190927401A0927501D7
:101D2000B09276019C012E5D3F4FA217B30744F598
:101D300060968C179D0724F580912A0190912B01C4
:101D4000F60122813381BC01685D7F4FA9014A5DA4
:101D50005F4F46175707A4F4275D3F4F47968217FA
:101D6000930774F480918301823051F010938301C2
:101D70008092730190927401A0927501B0927601E5
:101D8000F4E0CF0ED11C28E2C21621E0D20609F001
:101D900067CFC0902A01D0902B0186010F5F1F4FA3
:101DA000C0912801D09129014E018BE0880E911C31
:101DB0002E01E9E14E0E511C7601F6E1EF0EF11C09
:101DC00084149504F1F0580117FF02C0A12CB12C26
:101DD000C70121E4E216F10414F080E490E0A816B3
:101DE000B90624F08FEF881A980AEACF21E0A501FE
:101DF000B40181E995E00E94BB0CEFEFAE1ABE0A78
:101E0000E7CF8601095E1F4F2E01F2E24F0E511CF3
:101E10004E01760128E2E20EF11C84149504F1F0E3
:101E2000580117FF02C0A12CB12CC701E1E4EE1646
:101E3000F10414F080E490E0A816B90624F0FFEF56
:101E40008F1A9F0AEACF21E0A501B40181E995E04C
:101E50000E94BB0C2FEFA21AB20AE7CF8091830138
:101E6000813079F040F08230A9F4E12C08E222E2DE
:101E70004CEA50E00BC0E12C08E222E246E452E0DA
:101E800005C0E12C08E222E249E751E0B601CE01AB
:101E90000E942C111092A4051092A3051092A60581
:101EA0001092A50588EE93E06C01C618D7080D2C9A
:101EB000000CEE08FF08F7FE14C0E0918D05F091CC
:101EC0008E050190F081E02D6DE28DE895E0099599
:101ED00066277727CB016C197D098E099F094AE097
:101EE00003C04AE0C701B6010E94DB10DF91CF9129
:101EF0001F910F91FF90EF90DF90CF90BF90AF9028
:101F00009F908F907F906F905F904F900C94C9102E
:101F1000FC0180918C01811103C08FEF9FEF089528
:101F20009FB7F89482E08093E9002091F20030E0BE
:101F30001216130614F421E030E02115310559F092
:101F4000289884E680938B018091F10080838091B2
:101F5000F200882319F09FBFC90108958BE6809392
:101F6000E800F9CF2FB7F89483E08093E9009091CF
:101F7000E800892F807295FF04C09091F20080E400
:101F8000891B2FBF0895CF93DF931F92CDB7DEB784
:101F90006983DC01ED91FC910280F381E02D41E049
:101FA00050E0BE016F5F7F4F09950F90DF91CF9199
:101FB000089583E08093E9008091F200882319F06E
:101FC0008AE38093E80008950E94B20F90E008959C
:101FD000CF93DF931F92CDB7DEB7FC018485958543
:101FE00097FD05C02FEF3FEF358724870BC0CE014B
:101FF00001960E94880F019719F4898190E002C030
:102000008FEF9FEF0F90DF91CF9108950F931F9364
:10201000CF93DF931F92CDB7DEB78C01FC0184858F
:10202000958597FF0EC0CE0101960E94880F0197FB
:1020300019F4298130E002C02FEF3FEFF801358716
:102040002487F801848595850F90DF91CF911F91AA
:102050000F910895FC018485958597FD0BC09FB76E
:10206000F89482E08093E9008091F2009FBF90E0B5
:10207000019608959FB7F89482E08093E9008091DB
:10208000F2009FBF90E008958F929F92AF92BF920F
:10209000CF92DF92EF92FF920F931F93CF93DF9334
:1020A0005C016B017A0180913B01882309F45BC0DC
:1020B00080918C01882309F456C080918A0180FFA9
:1020C00005C08091E00082608093E000E70110E0AD
:1020D0000AEF83E0882E9AE3992E2097D9F10E9487
:1020E000B20F81110AC0015009F43DC061E070E0F7
:1020F00080E090E00E94320CF0CF282F30E0C21731
:10210000D3070CF48C2F4FB7F8948092E90090918C
:10211000E80095FF1DC0282F30E0C21BD30BF6014D
:10212000982F915020F081918093F100FACFC20E48
:10213000D31E112319F09092E80009C08091E800A5
:1021400085FD06C09092E80011E0209709F010E0AC
:102150004FBFC3CF1111C3CF5D9884E68093AB0509
:102160001E141F0444F081E090E0F5019383828304
:1021700080E090E001C0C701DF91CF911F910F91E6
:10218000FF90EF90DF90CF90BF90AF909F908F9097
:10219000089580918D018EBDEEE8F1E081910DB43E
:1021A00007FEFDCF8EBD85E0ED38F807B9F70DB419
:1021B00007FEFDCF08958F929F92AF92BF920F932B
:1021C0001F93CF93DF93CDB7DEB7A1970FB6F894E7
:1021D000DEBF0FBECDBF19A2423008F44AE08E0127
:1021E0000F5D1F4F842E912CA12CB12CA5019401C1
:1021F0000E946714E62FB901CA0101501109EA30A3
:1022000014F4E05D01C0E95CD801EC93232B242B8E
:10221000252B61F70115110571F0F80101900020DF
:10222000E9F73197AF01401B510BB8018DE895E0FC
:102230000E942D0802C080E090E0A1960FB6F894AD
:10224000DEBF0FBECDBFDF91CF911F910F91BF9029
:10225000AF909F908F9008952F923F924F925F92F0
:102260006F927F928F929F92AF92BF92CF92DF92A6
:10227000EF92FF920F931F93CF93DF9300D000D084
:102280001F92CDB7DEB7C22ED12C9C012C0D3D1D67
:1022900037FD64C0803891050CF060C010E09B01F0
:1022A000200F311F37FD5AC0603471050CF056C045
:1022B0003E2D3A012B011C01C6010796AC0193E0AB
:1022C000559547959A95E1F75A834983A12CB12CEE
:1022D000E12CF12CE016F1060CF040C01D821C82AE
:1022E0004701840C951C4C815D814C155D0574F58E
:1022F000EC81FD8183E0F595E7958A95E1F7EA0D9C
:10230000FB1DE60DF71DE491F0E08C819D81877047
:10231000992740E850E002C0559547958A95E2F725
:10232000E423F523EF2B61F0232FA4016C817D8141
:10233000620D731D81E995E03B830E94BB0C3B81DC
:102340008C819D8101969D838C83CDCF5FEFE51AB3
:10235000F50A89819A81A80EB91EBCCF0F900F9003
:102360000F900F900F90DF91CF911F910F91FF90E1
:10237000EF90DF90CF90BF90AF909F908F907F9025
:102380006F905F904F903F902F90089580E0EDE820
:10239000F1E081118FEF00248193819381938193E8
:1023A0000394D1F7EDE8F5E0118E108E178A168AA6
:1023B00008958091B00581110DC082E08093AC0535
:1023C00084E08093AD051092AF051092AE0581E0D8
:1023D0008093B0058CEA95E008951F920F920FB696
:1023E0000F9211248F939F938091E1009091E100CF
:1023F000937F9093E10083FF0FC01092E90091E07A
:102400009093EB001092EC0092E39093ED00109209
:102410008C0198E09093F00082FF20C093E09093AD
:10242000E9009091F200992319F09AE39093E80063
:102430009091AB05992339F09091AB059150909311
:10244000AB05992389F190918B01992339F09091F3
:102450008B01915090938B01992341F184FF10C01F
:102460008091E2008E7E81608093E2008091E100A5
:102470008F7E8093E10080918A018E7E806111C001
:1024800080FF16C08091E2008E7E80618093E20022
:102490008091E1008E7E8093E10080918A018E7EA2
:1024A000816080938A0104C05D9ACDCF289AD6CFEF
:1024B0009F918F910F900FBE0F901F9018950F93C3
:1024C0001F93CF93DF938C0181E090E00E945F1413
:1024D00080FF31C08AE090E00E945F149FEF980F68
:1024E0009E3F48F522E330E0D80157963C932E9367
:1024F000569728E330E059963C932E935897CBE0BB
:10250000D0E0D801ED91FC910190F081E02D682F91
:10251000C8010995CE010E945F142196C131D105F1
:1025200081F70E94C91088EE93E0DF91CF911F914F
:102530000F910C946C0CDF91CF911F910F91089526
:1025400004970C945F12789484B5826084BD84B53E
:10255000816084BD85B5826085BD85B5816085BD9E
:1025600080916E00816080936E0010928100809156
:1025700081008260809381008091810081608093DE
:102580008100809180008160809380008091910023
:10259000826080939100809191008160809391008E
:1025A000809190008160809390008091C100846050
:1025B0008093C1008091C10082608093C1008091AE
:1025C000C10081608093C1008091C30081608093CD
:1025D000C3008091C00082608093C0008091C200DF
:1025E00081608093C20080917A00846080937A0039
:1025F00080917A00826080937A0080917A00816075
:1026000080937A0080917A00806880937A0010929B
:102610008C011092890110928A018091D70081600B
:102620008093D70080EA8093D80089B5806189BD06
:1026300089B5826089BD09B400FEFDCF61E070E01C
:1026400080E090E00E94320C8091D8008F7C806105
:102650008093D8008091E000807F8093E00080919B
:10266000E1008E7E8093E1008DE08093E200559A38
:10267000209AEEEFFFE7859194918B3F9C4D19F4E2
:1026800081E08093880181EC80937C0085B1806F2C
:1026900085B9249884B1866E84B95E9A5F988AB1B0
:1026A000806D8AB9769A6E9881B3806F81BB899864
:1026B00080B38D7080BB80E58CBD81E08DBD85E0F1
:1026C00090E00E946C0C5F9A85E090E00E946C0C98
:1026D0005E985C98E7EFF9E08DE08E0F94919EBDD7
:1026E00000000DB407FEFDCF31968E13F7CF5C9A34
:1026F00081E88093640081E080936500CFE3D0E0BF
:102700000E94C611EE24E39408E028E444E05EE071
:10271000BE018AE190E00E942C11BE01685F7F4FEC
:1027200000E420E844E05AE080E090E00E942C11B0
:102730000E94C9102197C73F8FEFD80709F768EEAD
:1027400073E080E090E00E94320CC4E000E010E012
:1027500020E0E22E20E0F22EDFEFDD24D39432E001
:10276000C32E43E0B42E95E0A92ED09380010E94A1
:10277000890887FD109280010E94890884FDD0920B
:1027800080010E94890885FDC09280010E9489080D
:1027900086FDB09280010E94890883FDC09380016C
:1027A0000E94890882FDA09280010E94AB080E94CD
:1027B000C80D80918301823071F480912A0190913B
:1027C0002B01803891052CF40E94AB080E94C80DA3
:1027D000F4CFF80109958091810190918201883EA2
:1027E00093408CF100E010E0C0E0D0E0D093A4056D
:1027F000C093A3051093A6050093A5058CE4E82ECD
:102800008EE0F82EF7016491611107C00E94C91093
:102810006296C633D10551F710C0E0918D05F09155
:102820008E050190F081E02D8DE895E00995FFEF90
:10283000EF1AFF0A892B31F7E9CF085F1F4F0034E9
:10284000110591F6FFCFE114F10409F48ECF0E9437
:10285000000089CFE8EBF5E01382128288EE93E066
:10286000A0E0B0E084839583A683B78387E491E0FA
:10287000918380838FEF9FEF95878487EDE8F5E064
:10288000138212821186128620E123879087878324
:10289000108A118A128A138A148A89E591E0918339
:1028A000808387E691E095838483178A168A118E48
:1028B000108E81E0828F138E848F158E0895F99982
:1028C000FECF92BD81BDF89A992780B50895A1E207
:1028D0001A2EAA1BBB1BFD010DC0AA1FBB1FEE1F9A
:1028E000FF1FA217B307E407F50720F0A21BB30BE5
:1028F000E40BF50B661F771F881F991F1A9469F761
:1029000060957095809590959B01AC01BD01CF01BC
:1029100008955058BB27AA270E94A1140C94801533
:102920000E94721538F00E94791520F039F49F3F0B
:1029300019F426F40C946F150EF4E095E7FB0C9453
:102940006915E92F0E94911558F3BA1762077307AA
:102950008407950720F079F4A6F50C94B3150EF4CE
:10296000E0950B2EBA2FA02D0B01B90190010C019F
:10297000CA01A0011124FF27591B99F0593F50F4B7
:10298000503E68F11A16F040A22F232F342F44270F
:10299000585FF3CF469537952795A795F040539507
:1029A000C9F77EF41F16BA0B620B730B840BBAF0D7
:1029B0009150A1F0FF0FBB1F661F771F881FC2F742
:1029C0000EC0BA0F621F731F841F48F48795779556
:1029D0006795B795F7959E3F08F0B0CF9395880F10
:1029E00008F09927EE0F9795879508950E94FD149A
:1029F0006894B1110C94B41508950E94991588F04B
:102A00009F5798F0B92F9927B751B0F0E1F0660FB2
:102A1000771F881F991F1AF0BA95C9F714C0B130F3
:102A200091F00E94B315B1E008950C94B315672F8F
:102A3000782F8827B85F39F0B93FCCF38695779522
:102A40006795B395D9F73EF490958095709561950B
:102A50007F4F8F4F9F4F0895E89409C097FB3EF436
:102A600090958095709561957F4F8F4F9F4F9923DB
:102A7000A9F0F92F96E9BB279395F6958795779559
:102A80006795B795F111F8CFFAF4BB0F11F460FF19
:102A90001BC06F5F7F4F8F4F9F4F16C0882311F071
:102AA00096E911C0772321F09EE8872F762F05C085
:102AB000662371F096E8862F70E060E02AF09A9520
:102AC000660F771F881FDAF7880F9695879597F915
:102AD000089597F99F6780E870E060E008959FEFA0
:102AE00080EC089500240A941616170618060906A5
:102AF000089500240A941216130614060506089574
:102B0000092E0394000C11F4882352F0BB0F40F4FB
:102B1000BF2B11F460FF04C06F5F7F4F8F4F9F4F3B
:102B2000089557FD9058440F551F59F05F3F71F0BD
:102B30004795880F97FB991F61F09F3F79F0879524
:102B40000895121613061406551FF2CF4695F1DFAD
:102B500008C0161617061806991FF1CF869571053D
:102B6000610508940895E894BB2766277727CB0171
:102B700097F90895EE0FFF1F0590F491E02D099449
:0E2B800081E090E0F8940C94C515F894FFCF16
:102B8E00A0000600F0000C0064011300A8010C0068
:102B9E00E0010A001E02120060021200C0020A00CA
:102BAE001E030800620313001400180080FF0000CB
:102BBE00FFFFFFFF00E100000000000000C1808168
:102BCE0000000000000000C30F4410E40FD90F2ACC
:102BDE0010E80F061000000000D90C2D08A808A759
:0A2BEE00085F12FCFF0000A01200B7
:00000001FF
