:100000000C9410070C9438070C9438070C9438079C
:100010000C9438070C9438070C9438070C94380764
:100020000C9438070C9438070C9438070C94380754
:100030000C9438070C9438070C9438070C94380744
:100040000C94120D0C9438070C9438070C94380754
:100050000C9438070C9438070C9438070C94380724
:100060000C9438070C9438070060000000002080D2
:1000700080000038980000000818000000043C00D0
:100080000000207C00000010FC00000001FE0000C9
:10009000003BFE0000001FFF0000002E1F000000BC
:1000A0000803800000092200000011210000005C0C
:1000B000CE000000ACCC800000B8074000009A16CB
:1000C0004000007DEF80000035EB0000002A1500A5
:1000D0000000700380000040018000004FE9000034
:1000E000007017F40000401FFF0040800FFF806089
:1000F000813FBB005700FF808048003F3100200057
:100100007F4B0013007F49800E003F31400C007F81
:10011000E0C0103F87B8402097D50E80236029F1BA
:100120000044C0108D00898000060091000000008E
:1001300060000000000000000000001BF100000053
:100140003BFF8000003BFF00000007F08000000F35
:10015000C50000000F850000000F8500000007A10A
:1001600080000009718000000425000000030200E7
:10017000000001FC00000003FB00000003FC800005
:100180000001FC800000013D0000000206000000AC
:1001900002080000000410000000046000000003DA
:1001A00080000000036000000003F80000001C0550
:1001B000F000006003FC0000801FFE0001000FFF44
:1001C0000002003FE7000C005F8D0010003F84003C
:1001D00067007FC0808A009FE1006C001FB88050DC
:1001E0007F878F002097FA0600236001C38044C0F8
:1001F0000039008900000E0090000000006000003F
:10020000000000000000000077C000000077FF0041
:10021000000077FE0000000FE10000001F8A0000D0
:10022000001F0A0000001F0A0000000E430000002B
:1002300012E3000000084A0000000604000000036A
:10024000F800000007F200000007FD00000007FCB6
:10025000800000043C800000021300000002100037
:1002600000000210000000042000000003C0000095
:100270000003600000003FF0000000C03BF80001F8
:100280000007FC00020007FE0004000FE100080068
:100290000FC6800B003F828012000F808016001F67
:1002A000804017000FE04066104FFC80AC38CFDF75
:1002B00000AC4F9F3000B8C80620004466223000D2
:1002C0000251130800022D11880001C20E700000B7
:1002D0001400006A0000560001A58001C28001439D
:1002E000400180C00281400381A00600600500C07B
:1002F0000300A00500C00600300C00500A00600694
:1003000000500A00300A00500C00600A005006003D
:10031000300E00500A00600C00500A0030060050F9
:100320000A00600500500600A00500C00300A005FB
:1003300000600281A00301400280C000C3C001022E
:100340000001E780005500006A00002C0000140046
:10035000006A0000560001A58001C28001434001EF
:1003600080C00281400381A01600600D00CC030014
:10037000A40500D00600300C00500A0060060050B2
:100380000A00300A00500D00600A80500600343E1A
:1003900000500A00680C00500A00300600500A00A5
:1003A000600500500600A00500C00340A005806065
:1003B0000681B00301482280C000C3C001020001D1
:1003C000E780005500016A00002C009999999999DD
:1003D000980699999999999999999900000000001E
:1003E000140A000000000000000000555555555546
:1003F00049255555555555555555559249249249B8
:100400002000492524924924924924924924924962
:100410002DC04925249249249249246DB6DB6DB63E
:10042000CDC1B6DADB6DB6DB6DB6DB9249249249FD
:100430002D604925249249249249249249249249C5
:1004400023604925249249249249243FE7FCFF9FD9
:10045000EFF1FE7FDFF3FE7FCFF9FFDFDBFB7F6F86
:10046000EF39FDBFAFEDFDBFB7F6FEC718E31C6364
:100470008FD8718E238C718E31C638D0DA1B4368C9
:100480006F190DA1A86D0DA1B43686D55AAB556A6A
:10049000AE5155AAAAAD55AAB556AACA99132A644F
:1004A0004E20A991254C899532265401020408104A
:1004B00020408000000000003E5B4F5B3E3E6B4FE3
:1004C0006B3E1C3E7C3E1C183C7E3C181C577D57E6
:1004D0001C1C5E7F5E1C00183C1800FFE7C3E7FF92
:1004E0000018241800FFE7DBE7FF30483A060E2625
:1004F00029792926407F050507407F05253F5A3C7D
:10050000E73C5A7F3E1C1C08081C1C3E7F14227FBF
:1005100022145F5F005F5F06097F017F0066899597
:100520006A606060606094A2FFA29408047E040880
:1005300010207E201008082A1C08081C2A08081E03
:10054000101010100C1E0C1E0C30383E3830060EE9
:100550003E0E06000000000000005F0000000700E3
:100560000700147F147F14242A7F2A12231308649F
:100570006236495620500008070300001C22410043
:100580000041221C002A1C7F1C2A08083E08080083
:100590008070300008080808080000606000201023
:1005A0000804023E5149453E00427F4000724949DD
:1005B00049462141494D331814127F1027454545BE
:1005C000393C4A49493141211109073649494936DF
:1005D000464949291E000014000000403400000074
:1005E00008142241141414141400412214080201A6
:1005F0005909063E415D594E7C1211127C7F4949D2
:1006000049363E414141227F4141413E7F4949496E
:10061000417F090909013E414151737F0808087F64
:1006200000417F41002040413F017F081422417F6B
:10063000404040407F021C027F7F0408107F3E4103
:1006400041413E7F090909063E4151215E7F09195A
:100650002946264949493203017F01033F40404072
:100660003F1F2040201F3F4038403F631408146361
:1006700003047804036159494D43007F414141021D
:1006800004081020004141417F040201020440405F
:10069000404040000307080020545478407F28441D
:1006A00044383844444428384444287F3854545407
:1006B0001800087E090218A4A49C787F0804047816
:1006C00000447D40002040403D007F102844000051
:1006D000417F40007C047804787C08040478384426
:1006E000444438FC1824241818242418FC7C0804DA
:1006F0000408485454542404043F44243C404020FB
:100700007C1C2040201C3C4030403C4428102844A5
:100710004C9090907C4464544C4400083641000056
:1007200000770000004136080002010204023C2666
:1007300023263C1EA1A161123A4040207A3854542D
:1007400055592155557941215454784121555478B2
:100750004020545579400C1E527212395555555946
:10076000395454545939555454580000457C41006B
:1007700002457D420001457C40F0292429F0F02803
:100780002528F07C545545002054547C547C0A099B
:100790007F4932494949323248484832324A48480A
:1007A000303A4141217A3A42402078009DA0A07D14
:1007B00039444444393D4040403D3C24FF242448D2
:1007C0007E4943662B2FFC2F2BFF0929F620C0887A
:1007D0007E090320545479410000447D413048484B
:1007E0004A32384040227A007A0A0A727D0D193165
:1007F0007D2629292F28262929292630484D4020C1
:10080000380808080808080808382F10C8ACBA2F9C
:10081000102834FA00007B000008142A1422221445
:100820002A14089500220095AA005500AAAA55AAE4
:1008300055AA000000FF00101010FF00141414FF50
:10084000001010FF00FF1010F010F0141414FC0042
:100850001414F700FF0000FF00FF1414F404FC144C
:100860001417101F10101F101F1414141F00101045
:1008700010F0000000001F101010101F10101010BA
:10088000F010000000FF101010101010101010FFDA
:1008900010000000FF140000FF00FF00001F1017F1
:1008A0000000FC04F414141710171414F404F400DA
:1008B00000FF00F714141414141414F700F71414A0
:1008C00014171410101F101F141414F4141010F027
:1008D00010F000001F101F0000001F14000000FC9B
:1008E000140000F010F01010FF10FF141414FF1487
:1008F0001010101F00000000F010FFFFFFFFFFF0BE
:10090000F0F0F0F0FFFFFF0000000000FFFF0F0F0E
:100910000F0F0F38444438447C2A2A3E147E0202CA
:100920000606027E027E0263554941633844443C18
:1009300004407E201E2006027E020299A5E7A599AA
:100940001C2A492A1C4C7201724C304A4D4D3030E1
:1009500048784830BC625A463D3E494949007E01CC
:1009600001017E2A2A2A2A2A44445F444440514AEB
:10097000444040444A51400000FF0103E080FF0032
:100980000008086B6B083612362436060F090F066E
:10099000000018180000001010003040FF01010096
:1009A0001F01011E00191D1712003C3C3C3C0000B9
:1009B000000000AED5F0A83FD300408D14A1C8DAE6
:1009C0001281CFD9F1DB40A4A6AF200021007F2205
:1009D0000007FFFFFFFFFFFFFFFFFFFFFFFFFFFF1E
:1009E000FFFFFFFFFFFFFFFFFFFFFFFFFFFFFFFF17
:1009F000FFFFFFFBEFFF7FEF9FFDFFDEFFBDFFE08F
:100A00007FFFFFFFEFFEBFEFDFFEFFDEFF80082F5F
:100A10007FFFFFE1EFFDDFEC01FE7FBD7F7DFFABE0
:100A20007FFFFFFDEFFBEF83BFF6FFBBBF7DFBAB9F
:100A30007FFFFFFB00F7F7EF7FF7FF37DE603D6BCF
:100A40007FFFFFFBEFC808CEF7B7EEAFE56FBD6BDA
:100A50007FFFF831EFFFFDC607B7F79BAF603EEBB6
:100A6000783FFFEAEFFFFFABEFB7FBBBBF6FBEEB1B
:100A70007FFFFFFBEFE003AFDBB7FBBBBF603D6B6E
:100A80007FFFFFFBEFFEFFEF3377FBBBBF6FBDA91F
:100A90007FFFFFFBEFFDDFECEFF7EFBBBF603DB586
:100AA000FFFFFFFBEFFBEFEFDFF7EFBBBF6FBBED30
:100AB000DFFFFFFA007007EF27F7EFB7BF6FBFDD6B
:100AC000DFFFFFFBFFFBF7E8FBF81FAFBF000F3EA8
:100AD0003FFFFFDFFFFFFFFFFDFFFBFFFFFFEFFF1C
:100AE000BDFFF0002180E003FEFFFDFFFC0FC7FD0E
:100AF000BDBFF7FFBDBEEFFBFEFFFDFE0DEC3FFEF1
:100B0000857FF4017DBEEFFBC0030002EDEFBFFE69
:100B1000BCFFFFFFFD80E003FEFFEFDEEC0FB81F20
:100B2000BDDFFE03E1F7EF7FFEFFEFDE0DEC03DF3D
:100B3000A5DFFEFBEFF7EF7FFEFFEFBEEDEFBBD8CB
:100B40009A3FFE03EF006001E007F7BEEDEFBBDE6A
:100B5000F7FFFFFFE1776FBFFEFFF77EEC0F1BDEB5
:100B6000C07FFC01FD776FBFFEFFFB7E0DEEABDEAD
:100B7000DF7FFDDDFD006FDFFEFFFCFEEDEEABDE97
:100B8000DF7FFC01FDF7EDEEFEFFFB3FFBEDBBDE83
:100B9000807FFDDDEDF6EBF6FEFFF7DFFBEFB81E25
:100BA0005F7FFC01F50067F88001CFE3F7AFBBDEA4
:100BB000DF7FFDFDFBFF6FFEFFFF3FF7EFDFBFFFB6
:100BC000C07FFFBFFFBFFFFFEFBFFF7FFFFFFEFF45
:100BD000FBFFFFBFFFBFE001EFBFF73F000EFEFDD1
:100BE000FBFFFF7FFFBFFF7FC103F77FFBFF7EFEA1
:100BF00077FFFC00F000F777B6EFF77FFBFFB01F41
:100C0000777FFDFEF7BEFB77FEFFEFBFFBFDFEFB30
:100C1000EFBFFDFEF7BEFB77E007EFBFFBFEFEFC7C
:100C2000C01FFC00F7BEFB6FFEFFDDDFBBFFDEFE7B
:100C3000FFDFFDFEF7BEFF7F8001BDE3B81FA00F01
:100C4000BFFFFDFEF000C000FFDF7BF7BBFFBDFF75
:100C5000603FFC00F7BEFF7FC003FBFFBBFF7DFED4
:100C6000EFBFFDFEF7BEFF7FFBDFF7FFBBFC7BB8EE
:100C7000EFBFFDFEF7BEFF7FFDDFEFBFBBFF7BDEFB
:100C8000EFBFFDFEF7BEFF7FFDDFDFDFBBFF77DEDF
:100C9000EFBFFC00F000FF7FFF5F800FBBFF600E27
:100CA000E03FFDE0F7FEF66FFDBFDFAE000767EE49
:100CB0006DBFF81DF00076EFFDBF7FAFDEFFEFFFE9
:100CC000BBFFFDBDF7FF402FFDBFBFB7C004000C49
:100CD000003FFEDBF7FF76E0DDBBB003BFFFEFFFB9
:100CE000EFFFF00034016FDDEDBBF7BFBFFFEFFE9C
:100CF000007FF7BF77DF603DEDB737BF300FC03FF4
:100D0000EFFFFFBFF7DF6F5DF5B7B0B73FFFDFBCA9
:100D1000003FF800F603415DF5AFB6B6B00FAF7F08
:100D20006DFFFF7FF7DF6D5BF5AFB6AFBFFFB77F3E
:100D3000ABFFFF03F7D76D6BF59FB6AFBFFF7AF838
:100D4000001FFE7BF7DB6D77FDBFA6DFB00EFDFF5A
:100D5000FFFFFDB7F401616BFDBF92DBB7EDFAFE5B
:100D600000FFF3CFF7FF6F6BFDBFB5ABB7EFE77ECB
:100D7000FEFFFF3070007D5C8001EF73B00F9F8E2F
:100D800000FFF8FEF7FF7EBDFFFFDEFBB7EC7FDE66
:100D9000FEFFFFFFFFFFFFFFFFFFFFFFFFFFFFFF64
:100DA000FFFFFFFFFFFFFFFFFFFFFFFFFFFFFFFF53
:100DB000FFFFFFFFFFFFFFFFFFFFFFFFFFFFFFFF43
:100DC000FFFFFFFFFFFFFFFFFFFFFFFFFFFFFFFF33
:100DD000FFFF1800000000000000006606333C1210
:100DE0008BE0894442094924128880894499024948
:100DF0003C1E888C8F449904492412A88C89544243
:100E00000849241250808928660F33BC125080E9AB
:100E10002818000000000000000057494E00BE0ED8
:100E200011241FBECFEFD8E0DEBFCDBF11E0A0E0A0
:100E3000B1E0E6E8F0E202C005900D92A434B107FB
:100E4000D9F725E0A4E4B1E001C01D92A537B207AF
:100E5000E1F717E0C0E1D7E004C02197FE010E944E
:100E60003610CF30D107C9F70E949E0D0C94411067
:100E70000C94000080E0E5E7F1E081118FEF0024A1
:100E800081938193819381930394D1F7EEE5F1E00F
:100E9000128A118A108A17860895CF92DF92EF92F4
:100EA000FF920F931F93CF93DF936C017A018B0115
:100EB000C0E0D0E0CE15DF0589F0D8016D918D013D
:100EC000D601ED91FC910190F081E02DC6010995CC
:100ED000892B11F47E0102C02196ECCFC701DF916E
:100EE000CF911F910F91FF90EF90DF90CF900895D9
:100EF0003FB7F8948091560190915701A091580105
:100F0000B091590126B5A89B05C02F3F19F0019655
:100F1000A11DB11D3FBFBA2FA92F982F8827820F7F
:100F2000911DA11DB11DBC01CD0142E0660F771FCF
:100F3000881F991F4A95D1F708958F929F92AF927B
:100F4000BF92CF92DF92EF92FF926B017C010E94E1
:100F500078074B015C01C114D104E104F104F1F004
:100F60000E947807DC01CB0188199909AA09BB09FD
:100F7000883E9340A105B10570F321E0C21AD10863
:100F8000E108F10888EE880E83E0981EA11CB11CD0
:100F9000C114D104E104F10419F7DDCFFF90EF9003
:100FA000DF90CF90BF90AF909F908F90089568EEA4
:100FB00073E080E090E00C949D072FB7F894609167
:100FC00052017091530180915401909155012FBFAE
:100FD0000895339902C080E801C080E04A9B806197
:100FE000319B80624B9B80644C9B8860329B846009
:100FF00008958093BB0084E88093BC008091BC007E
:1010000087FFFCCF089584EA8093BC008091BC00E8
:1010100087FFFCCF88E70C94F9070E94030880E45F
:101020008093BB0084E88093BC00E5E7F1E09091F9
:10103000BC0097FFFCCF91919093BB008093BC00C4
:1010400095E0E537F90799F78091BC0087FFFCCF61
:1010500084E98093BC008091BC0084FDFCCF08959E
:1010600060387105D0F440345105B8F4EBEAF4E08F
:1010700080E1849FD001A0781124A60F4770E40F6F
:10108000F11D8491AB58BE4F222319F06C91862B31
:1010900003C080956C9186238C9308952F923F9284
:1010A0004F925F926F927F928F929F92AF92BF9278
:1010B000CF92DF92EF92FF920F931F93CF93DF9324
:1010C00000D000D01F92CDB7DEB7C22ED12C9C012C
:1010D0002C0D3D1D37FD64C0803891050CF060C0BB
:1010E00010E09B01200F311F37FD5AC0603471059D
:1010F0000CF056C03E2D3A012B011C01C60107968B
:10110000AC0193E0559547959A95E1F75A83498349
:10111000A12CB12CE12CF12CE016F1060CF040C012
:101120001D821C824701840C951C4C815D814C15ED
:101130005D0574F5EC81FD8183E0F595E7958A9571
:10114000E1F7EA0DFB1DE60DF71DE491F0E08C815F
:101150009D818770992740E850E002C055954795DA
:101160008A95E2F7E423F523EF2B61F0232FA40106
:101170006C817D81620D731D82E691E03B830E944C
:1011800030083B818C819D8101969D838C83CDCFDE
:101190005FEFE51AF50A89819A81A80EB91EBCCFC6
:1011A0000F900F900F900F900F90DF91CF911F91A4
:1011B0000F91FF90EF90DF90CF90BF90AF909F90F6
:1011C0008F907F906F905F904F903F902F900895F9
:1011D0002F923F924F925F926F927F928F929F9247
:1011E000AF92BF92CF92DF92EF92FF920F931F9335
:1011F000CF93DF93CDB7DEB729970FB6F894DEBF54
:101200000FBECDBFFC016A3069F4258981899289BE
:1012100038E0239F800D911D1124928B818B108AC1
:101220001786AAC06D3009F4A7C099878887F5880A
:1012300034882388618872880785108900381105F1
:10124000C4F0A885B98555962C915597422F50E04A
:101250001F968D919C915097B6E02B9F800D911D0C
:101260001124E885F985908B8787268921116EC026
:1012700083C0F0E46F16710424F7C80125E0F29EE4
:10128000800D911D112418161906DCF68F2D90E0A3
:101290009C838B83C301A8E0FA9E800D911D1124CD
:1012A0001816190674F6B5E06B9FB0011124FB0106
:1012B000ED54FB4FFA83E98330E0888599850496E5
:1012C0009E838D83E981FA81E490353009F4E12C25
:1012D000430188E0482EE0FC02C0532C01C0522C90
:1012E00051100BC0321009C0E6944A948B819C8146
:1012F000880E991E4110EFCF1BC068018C2D801BFA
:101300008F1590F754018A2D88198F1568F4252DB3
:10131000A501B6018D819E813F830E9430089FEF19
:10132000A91AB90A3F81EFCFAFEFCA1ADA0AE6CF9E
:101330003F5FEB81FC810E0F1F1F89819A8101960F
:101340009A838983363009F0BDCF7BCF6AEF64037F
:101350009001659F300D112420583F4F2817390701
:101360005CF4A885B985ED91FC9111970190F0810D
:10137000E02D6AE0CD01099581E090E029960FB655
:10138000F894DEBF0FBECDBFDF91CF911F910F91BB
:10139000FF90EF90DF90CF90BF90AF909F908F9095
:1013A0007F906F905F904F903F902F900895089599
:1013B000089580E090E00895EF92FF920F931F93BD
:1013C000CF93DF9300D000D0CDB7DEB7F0905D01B2
:1013D00022E0F21609F475C0E0905A0180915B0199
:1013E00090915C0123E0E21691F024E0E21641F1D5
:1013F00022E0E2121BC020912C0130912D012D5FC3
:101400003F4F30932D0120932C0103970BC0209167
:101410002C0130912D012350310930932D0120935F
:101420002C01039690935C0180935B0120915B01FA
:1014300030915C01A90140585C4FE0E0F1E01DC033
:1014400080912A0190912B01489781F780E090E0EC
:10145000A0EAB0EC80934D0190934E01A0934F0110
:10146000B0935001E3CF8081918102979183808373
:10147000349681E0E832F80741F08081918182174B
:1014800093078CF751834083EECF0E94DD070091D4
:10149000490110914A0120914B0130914C010650B5
:1014A0001F4F2F4F3F4F601771078207930738F088
:1014B0002FEFE21289C003C081E0F81202C010923F
:1014C0005D0120E030E040E05FE360914D0170910C
:1014D0004E0180914F01909150010E94060F9B0197
:1014E000AC0160934D0170934E0180934F01909336
:1014F000500180912A0190912B01BC01990F880B1A
:10150000990B29833A834B835C830E94AA0F29811C
:101510003A814B815C810E94060F0E94720F70938A
:101520002B0160932A016831710594F080915D016F
:10153000823071F088E190E090932B0180932A0132
:1015400010924D0110924E0110924F0110925001D5
:101550000E94DD070091450110914601209147014D
:101560003091480106501F4F2F4F3F4F60177107B2
:1015700082079307A0F00E94DD07609345017093F6
:101580004601809347019093480180914401811165
:1015900004C081E08093440102C010924401809114
:1015A0002C0190912D0180382FEF92071CF4805868
:1015B0009F4F05C018161906BCF4805891099093E6
:1015C0002D0180932C0110C00E94DD07609349011A
:1015D00070934A0180934B0190934C01F1106CCFB2
:1015E00081E080935D016DCF0F900F900F900F9071
:1015F000DF91CF911F910F91FF90EF9008958F92FF
:101600009F92AF92BF920F931F93CF93DF93CDB76B
:10161000DEB7A1970FB6F894DEBF0FBECDBF19A2FB
:10162000423008F44AE08E010F5D1F4F842E912C4A
:10163000A12CB12CA50194010E94E30EE62FB90163
:10164000CA0101501109EA3014F4E05D01C0E95CFF
:10165000D801EC93232B242B252B61F701151105C1
:1016600071F0F80101900020E9F73197AF01401BBC
:10167000510BB8018EE591E00E944D0702C080E059
:1016800090E0A1960FB6F894DEBF0FBECDBFDF91FC
:10169000CF911F910F91BF90AF909F908F90089521
:1016A0000E943C104F925F926F927F928F929F9216
:1016B000AF92BF92CF92DF92EF92FF920F931F9360
:1016C000CF93DF930E943A07C0E0D0E060912E01F3
:1016D00070912F0180912C0190912D01EE24E394C3
:1016E0000EE020E84BEC53E08C0F9D1F0E944E084B
:1016F000C058DF4FC03821E0D20741F700E010E0CA
:10170000CFE0D0E021E0AE01B80182E691E00E9496
:1017100030082196C034D105A9F70F5F1F4F00385C
:10172000110571F7C1E0D0E0CC9F7001CD9FF00CA6
:10173000F00C11248FE0E80EF11C00E010E020E036
:10174000A701B80182E691E00E9430080F5F1F4FA9
:1017500001381105A1F72196C730D10529F780E09E
:10176000C82E81E0D82E12E0812C912C90EAA92E6F
:1017700090ECB92E60905B0170905C01F601C08125
:10178000D181C619D709CE0108968838910508F08D
:1017900081C080914401882359F08130A1F4F60181
:1017A00062817381E12C0AE226E14FEC52E008C02D
:1017B000F60162817381E12C0AE226E14DE453E0F7
:1017C000CE010E944E088091280190912901DE01EE
:1017D00016969C01275E3F4FA217B3076CF5AC012C
:1017E000455F5F4F9E01205F3F4F4217530724F52F
:1017F00020912A0130912B01F60142815381F90198
:101800007696BA016A5D7F4F6E177F07ACF4475D2D
:101810005F4F2F5F3F4F2417350774F420915D0110
:10182000223051F010935D0180924D0190924E0153
:10183000A0924F01B09250019C012E5D3F4FA21724
:10184000B30744F560968C179D0724F580912A0113
:1018500090912B01F60122813381BC01685D7F4F9D
:10186000A9014A5D5F4F46175707A4F4275D3F4F14
:1018700047968217930774F480915D01823051F08E
:1018800010935D0180924D0190924E01A0924F0104
:10189000B0925001F4E0CF0ED11C28E2C21621E034
:1018A000D20609F067CFC0902A01D0902B018601A3
:1018B0000F5F1F4FC0912801D09129014E018BE08D
:1018C000880E911C2E01E9E14E0E511C7601F6E1C5
:1018D000EF0EF11C84149504F1F0580117FF02C0BB
:1018E000A12CB12CC70121E4E216F10414F080E42C
:1018F00090E0A816B90624F08FEF881A980AEACF6C
:1019000021E0A501B40182E691E00E943008EFEFEA
:10191000AE1ABE0AE7CF8601095E1F4F2E01F2E222
:101920004F0E511C4E01760128E2E20EF11C841488
:101930009504F1F0580117FF02C0A12CB12CC7018A
:10194000E1E4EE16F10414F080E490E0A816B90684
:1019500024F0FFEF8F1A9F0AEACF21E0A501B4011E
:1019600082E691E00E9430082FEFA21AB20AE7CF78
:1019700080915D01813079F040F08230A9F4E12C52
:1019800008E222E248E650E00BC0E12C08E222E245
:1019900042E052E005C0E12C08E222E245E351E0DA
:1019A000B601CE010E944E0810926E0110926D0198
:1019B0001092700110926F0188EE93E06C01C618CE
:1019C000D7080D2C000CEE08FF08F7FE14C0E091BC
:1019D0005E01F0915F010190F081E02D6DE28EE5F6
:1019E00091E0099566277727CB016C197D098E094F
:1019F0009F094AE003C04AE0C701B6010E94FF0AFE
:101A0000DF91CF911F910F91FF90EF90DF90CF90DA
:101A1000BF90AF909F908F907F906F905F904F900E
:101A20000C940D081F920F920FB60F9211242F9352
:101A30003F938F939F93AF93BF9380915201909167
:101A40005301A0915401B09155013091510123E00F
:101A5000230F2D3720F40196A11DB11D05C026E8E6
:101A6000230F0296A11DB11D2093510180935201B5
:101A700090935301A0935401B09355018091560166
:101A800090915701A0915801B09159010196A11D63
:101A9000B11D8093560190935701A0935801B093C4
:101AA0005901BF91AF919F918F913F912F910F90CD
:101AB0000FBE0F901F9018950F931F93CF93DF9336
:101AC0008C0181E090E00E94DB0E80FF2FC08AE055
:101AD00090E00E94DB0E9FEF980F9E3F38F522E3C7
:101AE00030E0D80150963C932E931F9728E330E0C6
:101AF00052963C932E935197CBE0D0E0D801ED91D4
:101B0000FC910190F081E02D682FC8010995CE016C
:101B10000E94DB0E2196C131D10581F70E940D088C
:101B2000DF91CF911F910F910C94D707DF91CF9147
:101B30001F910F91089504970C945C0D789484B5CF
:101B4000826084BD84B5816084BD85B5826085BDB9
:101B500085B5816085BD80916E00816080936E0047
:101B60001092810080918100826080938100809139
:101B700081008160809381008091800081608093EA
:101B800080008091B10084608093B1008091B000AA
:101B900081608093B00080917A00846080937A00A5
:101BA00080917A00826080937A0080917A008160CF
:101BB00080937A0080917A00806880937A001092F6
:101BC000C10081EC80937C0088B18E6088B987B1B8
:101BD0008E6087B98BB18C618BB98AB18C6F8AB9F1
:101BE0008BB1806E8BB91092B90088E48093B800F5
:101BF0000E94030880E00E94F907C3EBD9E01C2F84
:101C0000115EFE0184910E94F90721961C13F9CF01
:101C100084E98093BC008091BC0084FDFCCF81E00E
:101C20008093B800CFE3D0E00E943A07EE24E3941B
:101C300008E028E442ED5DE0BE018AE190E00E9408
:101C40004E08BE01685F7F4F00E420E842ED59E096
:101C500080E090E00E944E080E940D082197C73F47
:101C60002FEFD20709F768EE73E080E090E00E9462
:101C70009D07C4E000E010E020E0E22E20E0F22E1C
:101C8000DFEFDD24D39432E0C32E43E0B42E95E0A1
:101C9000A92ED0935A010E94E90787FD10925A019C
:101CA0000E94E90784FDD0925A010E94E90785FD50
:101CB000C0925A010E94E90786FDB0925A010E9423
:101CC000E90783FDC0935A010E94E90782FDA092B3
:101CD0005A010E94DC090E94520B80915D01823002
:101CE00071F480912A0190912B01803891052CF498
:101CF0000E94DC090E94520BF4CFF80109958091F3
:101D00005B0190915C01883E93408CF100E010E013
:101D1000C0E0D0E0D0936E01C0936D0110937001CC
:101D200000936F018AE1E82E8EE0F82EF7016491AE
:101D3000611107C00E940D086296C633D10551F7A4
:101D400010C0E0915E01F0915F010190F081E02D03
:101D50008EE591E00995FFEFEF1AFF0A892B31F725
:101D6000E9CF085F1F4F0034110591F6FFCFE11452
:101D7000F10409F48ECF0E94000089CFEEE5F1E076
:101D8000138212821186128680E183871086178261
:101D9000158684E391E09183808382E491E09583CA
:101DA0008483108A1786128A118A81E0838B148AB1
:101DB000858B168A0895F999FECF92BD81BDF89A58
:101DC000992780B50895A1E21A2EAA1BBB1BFD011D
:101DD0000DC0AA1FBB1FEE1FFF1FA217B307E4070A
:101DE000F50720F0A21BB30BE40BF50B661F771F62
:101DF000881F991F1A9469F7609570958095909542
:101E00009B01AC01BD01CF0108955058BB27AA2703
:101E10000E941D0F0C94FC0F0E94EE0F38F00E94E0
:101E2000F50F20F039F49F3F19F426F40C94EB0FD2
:101E30000EF4E095E7FB0C94E50FE92F0E940D10DE
:101E400058F3BA17620773078407950720F079F4EF
:101E5000A6F50C942F100EF4E0950B2EBA2FA02DA2
:101E60000B01B90190010C01CA01A0011124FF2747
:101E7000591B99F0593F50F4503E68F11A16F04042
:101E8000A22F232F342F4427585FF3CF4695379541
:101E90002795A795F0405395C9F77EF41F16BA0B06
:101EA000620B730B840BBAF09150A1F0FF0FBB1FB4
:101EB000661F771F881FC2F70EC0BA0F621F731FFD
:101EC000841F48F4879577956795B795F7959E3F5A
:101ED00008F0B0CF9395880F08F09927EE0F9795EB
:101EE000879508950E94790F6894B1110C94301071
:101EF00008950E94151088F09F5798F0B92F9927E0
:101F0000B751B0F0E1F0660F771F881F991F1AF0E4
:101F1000BA95C9F714C0B13091F00E942F10B1E00A
:101F200008950C942F10672F782F8827B85F39F009
:101F3000B93FCCF3869577956795B395D9F73EF47D
:101F400090958095709561957F4F8F4F9F4F089525
:101F5000E89409C097FB3EF4909580957095619543
:101F60007F4F8F4F9F4F9923A9F0F92F96E9BB27F9
:101F70009395F695879577956795B795F111F8CF75
:101F8000FAF4BB0F11F460FF1BC06F5F7F4F8F4FE0
:101F90009F4F16C0882311F096E911C0772321F0D6
:101FA0009EE8872F762F05C0662371F096E8862F6E
:101FB00070E060E02AF09A95660F771F881FDAF7C5
:101FC000880F9695879597F9089597F99F6780E808
:101FD00070E060E008959FEF80EC089500240A947B
:101FE0001616170618060906089500240A941216F4
:101FF0001306140605060895092E0394000C11F427
:10200000882352F0BB0F40F4BF2B11F460FF04C0D3
:102010006F5F7F4F8F4F9F4F089557FD9058440F2C
:10202000551F59F05F3F71F04795880F97FB991F37
:1020300061F09F3F79F087950895121613061406F4
:10204000551FF2CF4695F1DF08C016161706180681
:10205000991FF1CF86957105610508940895E8945C
:10206000BB2766277727CB0197F90895EE0FFF1F4F
:102070000590F491E02D099481E090E0F8940C949F
:062080004110F894FFCFAF
:10208600A0000600F0000C0064011300A8010C007B
:10209600E0010A001E02120060021200C0020A00DD
:1020A6001E030800620313001400180080FF0000DE
:1020B60000000000E8084D07D909D8095C0DFCFFAF
:0420C60000009B0D6E
:00000001FF
